{
  "contractName": "GoodAuction",
  "abi": [
    {
      "constant": true,
      "inputs": [],
      "name": "getHighestBidder",
      "outputs": [
        {
          "name": "",
          "type": "address"
        }
      ],
      "payable": false,
      "stateMutability": "view",
      "type": "function",
      "signature": "0x003495a4"
    },
    {
      "constant": true,
      "inputs": [],
      "name": "getHighestBid",
      "outputs": [
        {
          "name": "",
          "type": "uint256"
        }
      ],
      "payable": false,
      "stateMutability": "view",
      "type": "function",
      "signature": "0x4979440a"
    },
    {
      "payable": true,
      "stateMutability": "payable",
      "type": "fallback"
    },
    {
      "constant": false,
      "inputs": [],
      "name": "bid",
      "outputs": [
        {
          "name": "",
          "type": "bool"
        }
      ],
      "payable": true,
      "stateMutability": "payable",
      "type": "function",
      "signature": "0x1998aeef"
    },
    {
      "constant": false,
      "inputs": [],
      "name": "withdrawRefund",
      "outputs": [
        {
          "name": "",
          "type": "bool"
        }
      ],
      "payable": false,
      "stateMutability": "nonpayable",
      "type": "function",
      "signature": "0x110f8874"
    },
    {
      "constant": true,
      "inputs": [],
      "name": "getMyBalance",
      "outputs": [
        {
          "name": "",
          "type": "uint256"
        }
      ],
      "payable": false,
      "stateMutability": "view",
      "type": "function",
      "signature": "0x4c738909"
    },
    {
      "constant": false,
      "inputs": [],
      "name": "reduceBid",
      "outputs": [],
      "payable": false,
      "stateMutability": "nonpayable",
      "type": "function",
      "signature": "0x057ae235"
    }
  ],
  "bytecode": "0x608060405234801561001057600080fd5b506105a8806100206000396000f3fe608060405260043610610077576000357c0100000000000000000000000000000000000000000000000000000000900463ffffffff1680623495a4146100c6578063057ae2351461011d578063110f8874146101345780631998aeef146101635780634979440a146101855780634c738909146101b0575b34600260003373ffffffffffffffffffffffffffffffffffffffff1673ffffffffffffffffffffffffffffffffffffffff16815260200190815260200160002060008282540192505081905550005b3480156100d257600080fd5b506100db6101db565b604051808273ffffffffffffffffffffffffffffffffffffffff1673ffffffffffffffffffffffffffffffffffffffff16815260200191505060405180910390f35b34801561012957600080fd5b50610132610204565b005b34801561014057600080fd5b506101496102ed565b604051808215151515815260200191505060405180910390f35b61016b6103fe565b604051808215151515815260200191505060405180910390f35b34801561019157600080fd5b5061019a61052b565b6040518082815260200191505060405180910390f35b3480156101bc57600080fd5b506101c5610535565b6040518082815260200191505060405180910390f35b60008060009054906101000a900473ffffffffffffffffffffffffffffffffffffffff16905090565b6000809054906101000a900473ffffffffffffffffffffffffffffffffffffffff1673ffffffffffffffffffffffffffffffffffffffff163373ffffffffffffffffffffffffffffffffffffffff1614151561025c57fe5b600060015411156102e65760018054036001819055506001600260008060009054906101000a900473ffffffffffffffffffffffffffffffffffffffff1673ffffffffffffffffffffffffffffffffffffffff1673ffffffffffffffffffffffffffffffffffffffff168152602001908152602001600020600082825401925050819055506102eb565b600080fd5b565b600080600260003373ffffffffffffffffffffffffffffffffffffffff1673ffffffffffffffffffffffffffffffffffffffff1681526020019081526020016000205411156103fb576000600260003373ffffffffffffffffffffffffffffffffffffffff1673ffffffffffffffffffffffffffffffffffffffff168152602001908152602001600020819055503373ffffffffffffffffffffffffffffffffffffffff166108fc600260003373ffffffffffffffffffffffffffffffffffffffff1673ffffffffffffffffffffffffffffffffffffffff168152602001908152602001600020549081150290604051600060405180830381858888f1935050505015156103fa57600080fd5b5b90565b60006001543411156104d6576000600154111561048657600154600260008060009054906101000a900473ffffffffffffffffffffffffffffffffffffffff1673ffffffffffffffffffffffffffffffffffffffff1673ffffffffffffffffffffffffffffffffffffffff168152602001908152602001600020600082825401925050819055505b336000806101000a81548173ffffffffffffffffffffffffffffffffffffffff021916908373ffffffffffffffffffffffffffffffffffffffff1602179055503460018190555060019050610528565b34600260003373ffffffffffffffffffffffffffffffffffffffff1673ffffffffffffffffffffffffffffffffffffffff16815260200190815260200160002060008282540192505081905550600090505b90565b6000600154905090565b6000600260003373ffffffffffffffffffffffffffffffffffffffff1673ffffffffffffffffffffffffffffffffffffffff1681526020019081526020016000205490509056fea165627a7a72305820462b502c084078b75d9c251119c94aaf0bad4fb8fa955e09e07536a8cc3de65b0029",
  "source": "pragma solidity 0.5.0;\n\nimport \"./AuctionInterface.sol\";\n\n/** @title GoodAuction */\ncontract GoodAuction is AuctionInterface {\n\n\t/* New data structure, keeps track of refunds owed */\n\tmapping(address => uint) refunds;\n\n\n\t/* \tBid function, now shifted to pull paradigm\n\t\tMust return true on successful send and/or bid, bidder\n\t\treassignment. Must return false on failure and\n\t\tallow people to retrieve their funds  */\n\tfunction bid() payable external returns(bool) {\n\t\t// YOUR CODE HERE\n\t\tif(msg.value > highestBid){\n\t\t\tif(highestBid > 0) refunds[highestBidder] += highestBid;\n\t\t\thighestBidder = msg.sender;\n\t\t\thighestBid = msg.value;\n\t\t\treturn true;\n\t\t} else {\n\t\t\trefunds[msg.sender] += msg.value;\n\t\t\treturn false;\n\t\t}\n\t}\n\n\t/*  Implement withdraw function to complete new\n\t    pull paradigm. Returns true on successful\n\t    return of owed funds and false on failure\n\t    or no funds owed.  */\n\tfunction withdrawRefund() external returns(bool) {\n\t\tif(refunds[msg.sender] > 0){\n\t\t\trefunds[msg.sender] = 0;\n\t\t\trequire(msg.sender.send(refunds[msg.sender]));\n\t\t}\n\t}\n\n\t/*  Allow users to check the amount they are owed\n\t\tbefore calling withdrawRefund(). Function returns\n\t\tamount owed.  */\n\tfunction getMyBalance() view external returns(uint) {\n\t\treturn refunds[msg.sender];\n\t}\n\n\n\t/* \tConsider implementing this modifier\n\t\tand applying it to the reduceBid function\n\t\tyou fill in below. */\n\tmodifier canReduce() {\n\t\tassert(msg.sender == highestBidder);\n\t\t_;\n\t}\n\n\n\t/*  Rewrite reduceBid from BadAuction to fix\n\t\tthe security vulnerabilities. Should allow the\n\t\tcurrent highest bidder only to reduce their bid amount */\n\tfunction reduceBid() external canReduce() {\n\t\tif (highestBid > 0) {\n\t\t\t\thighestBid = highestBid - 1;\n\t\t\t\trefunds[highestBidder] += 1;\n\t\t} else {\n\t\t\trevert();\n\t\t}\n\t}\n\n\n\t/* \tRemember this fallback function\n\t\tgets invoked if somebody calls a\n\t\tfunction that does not exist in this\n\t\tcontract. But we're good people so we don't\n\t\twant to profit on people's mistakes.\n\t\tHow do we send people their money back?  */\n\n\tfunction () external payable {\n\t\t// YOUR CODE HERE\n\t\trefunds[msg.sender] += msg.value;\n\t}\n\n}\n",
  "sourcePath": "/Users/aashishrathi/Projects/BlockchainLearning/sp18-lab03/contracts/GoodAuction.sol",
  "compiler": {
    "name": "solc",
    "version": "0.5.0+commit.1d4f565a.Emscripten.clang"
  },
  "schemaVersion": "3.0.6",
  "updatedAt": "2019-07-09T09:33:41.436Z",
  "devdoc": {
    "methods": {},
    "title": "GoodAuction "
  },
  "userdoc": {
    "methods": {}
  }
}