{
  "contractName": "NotPoisoned",
  "abi": [
    {
      "inputs": [],
      "payable": true,
      "stateMutability": "payable",
      "type": "constructor",
      "signature": "constructor"
    },
    {
      "payable": true,
      "stateMutability": "payable",
      "type": "fallback"
    },
    {
      "constant": false,
      "inputs": [
        {
          "name": "amount",
          "type": "uint256"
        }
      ],
      "name": "bid",
      "outputs": [],
      "payable": false,
      "stateMutability": "nonpayable",
      "type": "function",
      "signature": "0x454a2ab3"
    },
    {
      "constant": false,
      "inputs": [],
      "name": "reduceBid",
      "outputs": [],
      "payable": false,
      "stateMutability": "nonpayable",
      "type": "function",
      "signature": "0x057ae235"
    },
    {
      "constant": false,
      "inputs": [
        {
          "name": "auction",
          "type": "address"
        }
      ],
      "name": "setTarget",
      "outputs": [],
      "payable": false,
      "stateMutability": "nonpayable",
      "type": "function",
      "signature": "0x776d1a01"
    },
    {
      "constant": true,
      "inputs": [],
      "name": "getTarget",
      "outputs": [
        {
          "name": "",
          "type": "address"
        }
      ],
      "payable": false,
      "stateMutability": "view",
      "type": "function",
      "signature": "0xf00e6a2a"
    },
    {
      "constant": true,
      "inputs": [],
      "name": "getBalance",
      "outputs": [
        {
          "name": "",
          "type": "uint256"
        }
      ],
      "payable": false,
      "stateMutability": "view",
      "type": "function",
      "signature": "0x12065fe0"
    }
  ],
  "bytecode": "0x60806040526104c4806100136000396000f3fe60806040526004361061006d576000357c0100000000000000000000000000000000000000000000000000000000900463ffffffff168063057ae2351461006f57806312065fe014610086578063454a2ab3146100b1578063776d1a01146100ec578063f00e6a2a1461013d575b005b34801561007b57600080fd5b50610084610194565b005b34801561009257600080fd5b5061009b610291565b6040518082815260200191505060405180910390f35b3480156100bd57600080fd5b506100ea600480360360208110156100d457600080fd5b81019080803590602001909291905050506102b0565b005b3480156100f857600080fd5b5061013b6004803603602081101561010f57600080fd5b81019080803573ffffffffffffffffffffffffffffffffffffffff1690602001909291905050506103f6565b005b34801561014957600080fd5b5061015261046f565b604051808273ffffffffffffffffffffffffffffffffffffffff1673ffffffffffffffffffffffffffffffffffffffff16815260200191505060405180910390f35b600073ffffffffffffffffffffffffffffffffffffffff166000809054906101000a900473ffffffffffffffffffffffffffffffffffffffff1673ffffffffffffffffffffffffffffffffffffffff1614151561028f5760008060009054906101000a900473ffffffffffffffffffffffffffffffffffffffff1690508073ffffffffffffffffffffffffffffffffffffffff1663057ae2356040518163ffffffff167c0100000000000000000000000000000000000000000000000000000000028152600401600060405180830381600087803b15801561027557600080fd5b505af1158015610289573d6000803e3d6000fd5b50505050505b565b60003073ffffffffffffffffffffffffffffffffffffffff1631905090565b3073ffffffffffffffffffffffffffffffffffffffff163181111580156103255750600073ffffffffffffffffffffffffffffffffffffffff166000809054906101000a900473ffffffffffffffffffffffffffffffffffffffff1673ffffffffffffffffffffffffffffffffffffffff1614155b156103f35760008060009054906101000a900473ffffffffffffffffffffffffffffffffffffffff1690508073ffffffffffffffffffffffffffffffffffffffff16631998aeef836040518263ffffffff167c01000000000000000000000000000000000000000000000000000000000281526004016020604051808303818588803b1580156103b457600080fd5b505af11580156103c8573d6000803e3d6000fd5b50505050506040513d60208110156103df57600080fd5b810190808051906020019092919050505050505b50565b3073ffffffffffffffffffffffffffffffffffffffff168173ffffffffffffffffffffffffffffffffffffffff1614151561046c57806000806101000a81548173ffffffffffffffffffffffffffffffffffffffff021916908373ffffffffffffffffffffffffffffffffffffffff1602179055505b50565b60008060009054906101000a900473ffffffffffffffffffffffffffffffffffffffff1690509056fea165627a7a7230582080ce3ea977ab89dcdd10f368df55b2900240b544bb5c216ae7faa953068b542f0029",
  "source": "pragma solidity 0.5.0;\n\nimport \"./AuctionInterface.sol\";\n\n/** @title NotPoisoned */\ncontract NotPoisoned {\n\n\taddress target;\n\n\t/* Constructor */\n\tconstructor() public payable {}\n\n\t/* Bid function */\n\tfunction bid(uint amount) external {\n\t\tif ((amount <= address(this).balance) && (target != address(0))) {\n\t\t\tAuctionInterface _target = AuctionInterface(target);\n\t\t\t_target.bid.value(amount)();\n\t\t}\n\t}\n\n\tfunction reduceBid() external {\n\t\tif (target != address(0)) {\n\t\t\tAuctionInterface _target = AuctionInterface(target);\n\t\t\t_target.reduceBid();\n\t\t}\n\t}\n\n\tfunction setTarget(address auction) external {\n\t\tif (auction != address(this)) {\n\t\t\ttarget = auction;\n\t\t}\n\t}\n\n\tfunction getTarget() public view returns (address) {\n\t\treturn target;\n\t}\n\n\tfunction getBalance() public view returns (uint) {\n\t\treturn address(this).balance;\n\t}\n\n\tfunction() external payable {}\n}\n",
  "sourcePath": "/Users/aashishrathi/Projects/BlockchainLearning/sp18-lab03/contracts/NotPoisoned.sol",
  "compiler": {
    "name": "solc",
    "version": "0.5.0+commit.1d4f565a.Emscripten.clang"
  },
  "schemaVersion": "3.0.6",
  "updatedAt": "2019-07-09T08:33:51.208Z",
  "devdoc": {
    "methods": {},
    "title": "NotPoisoned "
  },
  "userdoc": {
    "methods": {}
  }
}